:020000041000EA
:10000000002008205D0100101B0100101D010010E0
:100010001101001011010010110100101101001058
:100020001901001019010010190100101F01001022
:10003000110100101901001021010010230100100E
:100040001101001011010010110100101101001028
:100050001101001011010010110100101101001018
:100060001101001011010010110100101101001008
:1000700011010010110100101101001011010010F8
:1000800011010010110100101101001011010010E8
:1000900011010010110100101101001011010010D8
:1000A00011010010110100101101001011010010C8
:1000B00011010010110100101101001011010010B8
:1000C00011010010110100101101001011010010A8
:1000D0001101001011010010110100101101001098
:1000E0001101001011010010110100101101001088
:1000F0001101001011010010110100101101001078
:100100001101001011010010110100101101001067
:10011000EFF30580103800BE00BE00BE00BE00BE7A
:1001200000BE00BEF2EB88712887001048870010DF
:10013000A001001090A31AE7D3DEFFFF42012110B7
:10014000FF01000000260200793512AB4FF00000DD
:100150001E49086006C881F3088810474FF05040D8
:10016000006810B14FF00000F2E70DA40ECC00299A
:1001700002D000F012F8F9E71549164A002000E015
:1001800001C19142FCD11449884714498847144958
:10019000884700BEFDE701C901C29A42FBD3704700
:1001A000488700101001002000A10120382702100C
:1001B0000000082000000820382702100010082046
:1001C00000100820000000007047000008ED00E06B
:1001D00000A10120C0BA01203544001045020010E2
:1001E000F5430010F8B500BF064B0749C91A89103E
:1001F00048BF0131491003D0044B0BB101481847E7
:10020000704700BF00A1012000A1012000000000F4
:1002100008B5054B1BB105490548AFF30080BDE8A3
:100220000840FFF7E1BF00BF000000005CBA0120FA
:100230004476001008B5024800F076F908BD00BF0A
:10024000B4B1012000B583B004F0F0F907F09EF8D6
:1002500019491A4800F06CF90021084606F008FE1A
:1002600000F03DFC164C3023009394E80F0000F0A2
:1002700009FC94E80F0000F04FFC1249124800F00E
:10028000ABFC00F0ADFC1E2002F03AF81E244FF04B
:10029000010545EC44404FF0000343EC4040322060
:1002A00001F038FC45EC404000F020FB00214FF00D
:1002B000FF3005F009FEF7E700002050B4B101203F
:1002C000388200109A960100D009002008B5FFF787
:1002D000B1FF08BDC36823F47823CA0302F478226F
:1002E0001343C360036923F47823090943EAC13344
:1002F0000361704708B53F2906D8036823F4FC035F
:1003000043EA4141016008BD034B044A40F21B111E
:10031000034804F073F800BF487600105C760010C4
:100320009876001008B5102906D8036823F4F03336
:1003300043EA4131016008BD034B044A40F22911F0
:10034000034804F05BF800BFF0760010107700104F
:100350009876001000B583B0014600230193102366
:10036000019303F5FC03019301A8FFF7DBFF019B59
:1003700023F00C0242F00802019223F4F85222F01A
:100380000C0242F0080201920C4A1A4042F00802A4
:1003900001920B4A1A4042F00801019142F0090211
:1003A0000192084A1A4042F0090201920648184098
:1003B00040F00900019003B000BD00BFF3E0FFFE74
:1003C000F3E07FFEF3E07FFCF1E07FFC2DE9F04FEE
:1003D00087B006468B4690461D469DF840709DF8B6
:1003E000449000F12F4404F56004C4F3075406342C
:1003F000E4B22146184601F04FFF2146384601F08D
:100400004BFF2146484601F047FF0022114628468F
:1004100001F05EFF00221146384601F059FF00222C
:100420001146484601F054FF0DF1040A00240194DE
:1004300002940394049405944FF0FF3305934FF412
:10044000803301934FF4F83302934FF480230393E6
:100450004FF44023039308F1040208F10F031B0338
:1004600043EAC213029329465046FFF733FF039A2B
:1004700022F0FA7323F4803303930E4B134043F0BE
:1004800000430393534642465946304602F09FF9D3
:10049000012303FA05F503FA07F73D4303FA09F3CD
:1004A0002B4322465946304602F034F907B0BDE8E6
:1004B000F08F00BFFF3F0A3E38B502E04FF05043D7
:1004C0009B6D4FF050431B6D13F0010FF6D1134D90
:1004D000D5F80C33012404FA03F3114AC2F80434AA
:1004E000D5F8103304FA03F3C2F804340D490A2096
:1004F00001F0AEFC21460A2001F098FCD5F80C333F
:1005000004FA03F34FF0A042C2F850346A68A968B5
:1005100013688C402343136038BD00BFB4B1012081
:1005200000200050790600100022027042707047CF
:1005300030B58BB004460591012002F007FCC4F8E9
:100540000C03012002F002FCC4F81003D4F80C03E1
:10055000FFF700FF0990D4F81003FFF7FBFE0890A7
:10056000099B23F00C0242F00802099220F00C02D1
:1005700042F00802089223F03C0242F0080209927D
:1005800020F03C0242F00802089223F0FC0343F002
:100590004803099320F0FC0343F048030893012328
:1005A0000293032301931723009306AB07AA05A91F
:1005B0002C4802F04AF908B90BB030BD182301935A
:1005C0001723009319239DF818209DF81C100598F7
:1005D000FFF7FCFE059B6360079AA26003F12F43BF
:1005E00003F560031B0DDB000433D3181D461946C9
:1005F00009A8FFF77FFE294608A8FFF77BFED4F87D
:10060000101309A8FFF78EFED4F80C1308A8FFF703
:1006100089FED4F80C3304F10C00079A02F10801AA
:10062000059A02EB81029B0103F1A0431A60586016
:1006300060209860099A1A61D4F8103304F5C674E2
:10064000079A02F10801059A02EB81029B0103F16E
:10065000A0431A605C609860089A1A61024804F02E
:10066000A7F8A9E7FC800010B90400100C3070470F
:1006700000F5C670704700004FF0A043D3F80C148B
:10068000174BD3F80C3301229A400A4210D00120B4
:1006900094464FF0A042C2F80CC4124A9B0103F1E9
:1006A000A0435A604FF0000C02F80BCC02F80C0C7F
:1006B0000B4BD3F8103301229A400A420FD001218C
:1006C00010464FF0A042C2F80C04074A9B0103F108
:1006D000A0435A60A2F5C67300221A705970704781
:1006E000B4B10120C0B1012040B3012008B5002001
:1006F00005F018FF024B00221A705A70012008BD45
:10070000B4B10120012070478B88DBB2812B17D157
:100710004B78812B16D14B881B0A012B01D000206E
:10072000704700B583B0084B1B68ADF804301B0C54
:100730008DF80630032301AA06F018FB03B000BDB4
:100740000020704700207047507700108B881B0AEC
:100750004A88022B01D0002070474FEA122CBCF1CE
:10076000010F01D0002070474B78812B01D0002071
:100770007047D3B2022B01D90020704700B583B077
:100780001A46054B9B5C8DF8073001230DF10702DB
:1007900006F0ECFA03B000BD80A201208B881B0A92
:1007A00048884FEA102C022B01D000207047BCF182
:1007B000010F01D0002070474B78012B01D00020A1
:1007C0007047C3B2022B05D818461278024B1A5450
:1007D000012070470020704780A2012070B50446B8
:1007E0000D464FF0000E47E0384901EB820191EDD4
:1007F000007A374901EB830CDCED006A27EE267A9C
:1008000077EE877A013A0133002AEDDA1E220FE0F3
:100810002E4901EB820C9CED007A2D4901EB830CF3
:10082000DCED006A27EE267A77EE877A013A01330B
:100830009642EDDB0136274B1E601E2E01DD0022A5
:100840001A609FED257AF4EEC77AF1EE10FA09DC12
:100850009FED227AF4EEC77AF1EE10FA04D5DFEDBF
:100860001F7A01E0DFED1C7AFDEEE77A17EE903A91
:1008700024F810300EF1020EAE4525DA704634F938
:100880001E60174A1368174931F913C024F81EC0B7
:1008900021F81360013313600E2B02DD1346002292
:1008A0001A60013034F9103007EE903A094B1E6897
:1008B000F8EEE77A054B03EB8603C3ED007A324688
:1008C0000023DFED097A9FE770BD00BF84A20120FD
:1008D0002481001020A3012000FEFF46000000C775
:1008E00024A3012000A301200000000000B5B1B046
:1008F000394B1B782BB9384B5B78002B36D131B094
:1009000000BD002005F024FE03899BB2428992B20B
:100910008188981A00280BDB83B29942EBD9C91A57
:1009200089B2BF29E7D92C48FFF7A0FE00230EE0CB
:10093000480080B29B1A10FA83F39BB2EDE750F89F
:10094000231030AA02EB430222F8C01C01335F2BB4
:10095000F5DD60216846FFF741FFC02269460020AF
:1009600005F0CAFD1C4B00221A70C4E7002005F0F8
:10097000EFFD03899BB2428992B28188981A0028C0
:100980000BDB83B29942BAD9C91A89B2BF29B6D949
:100990001148FFF76DFE00230EE0480080B29B1A5D
:1009A00010FA83F39BB2EDE750F8231030AA02EB64
:1009B000430222F8C01C01335F2BF5DD602168463D
:1009C000FFF70CFFC0226946002005F095FD024BA1
:1009D00000225A7093E700BFB4B10120004870476D
:1009E0002482001000487047B881001010B560B92B
:1009F000124B40F209425A800120431C5B009BB21B
:100A000043F440730D48038010BD042814D80C4AE9
:100A100052F82040204606F0A7FDC0B21F2800D99A
:100A20001F20002305E05A1CE15C044B23F8121040
:100A3000D3B29842F7D8E0E70020E5E7ACA3012065
:100A4000A081001008B507EE902ABCEEE77ADFED32
:100A50000B6A77EEA67AF8EE476A77EEE67ADFED74
:100A6000086A67EEA67AFCEEE77A17EE903A9BB238
:100A700017EE102A02F0A6F808BD00BF00000037EC
:100A80000000804700B585B00DF1100C0CE90F0097
:100A90009DF81830302292FBF3F207EE902AF8EE20
:100AA000E77A17EE902A09219DF80D00FFF7CAFF9B
:100AB0009DF80E0000F08CFA002005B000BD10B5C6
:100AC00084B004AC04E90F009DF80E40204600F00D
:100AD0007FFA204600F0AFFB002004B010BD08B53F
:100AE000012000F075FA002000F072FA092000F0F1
:100AF0006FFA012000F09FFB002000F09CFB092012
:100B000000F099FB012000F074FA002000F071FA67
:100B1000092000F06EFA08BD10B586B08DE80F0010
:100B200000238DF81730294B1C78002C4AD1DFF8B0
:100B3000A0C0EE469DE80F008CE80F009CF80E3038
:100B40001F2B3BD84FF05042116B03F01F030122C3
:100B500002FA03F30B4236D09DE80F00FFF7AFFF18
:100B6000002830DB1A481B4B82794FF0FF310079A7
:100B700000F04CFA002826DB154C207A00F028FA09
:100B8000207A00F058FB0220002101F0B9F8A07B88
:100B900000F049FB40F21450002101F0B1F8207A36
:100BA00000F041FB01210DF1170000F0CDFA207A91
:100BB00000F041FB0124054B1C7004E04FF0504253
:100BC000516BC2E70024204606B010BDB9BA01201F
:100BD000A4B1012040420F0008B500F0B5FA08BDED
:100BE00010B582B000230093CDF80330184B18786D
:100BF00008B902B010BD174C207A00F014FB012098
:100C0000002100F075FF207A00F006FB207A00F04A
:100C1000F0F900240C2C0ADC0121684600F094FA5B
:100C20000C4B187B00F011FB08B90134F2E70721E7
:100C3000684600F089FA00F0ADF9054B00221A7001
:100C4000044B987B00F001FB003818BF0120D0E76F
:100C5000B9BA0120A4B101201F2809D84FF0504390
:100C60005A68012383401A4214BF012000207047B4
:100C70004FF050439A682038012383401A4214BF32
:100C800001200020704710B4C36823F01F0301F057
:100C90001F0C43EA0C03C360046924F01F0C4CEAE8
:100CA0001111016123F07C7343EA0253C36010BC4D
:100CB0007047C36823F4F8438A0202F4F8421343EE
:100CC000C360036923F4F843090943EA81230361FC
:100CD00070470022026042608260C26002614FF091
:100CE000FF3202614FF4803202604FF4F83242600A
:100CF0004FF4802282604FF440228260704738B502
:100D000004460D46FFF7E5FFAA1C63686FF3D01396
:100D100043EAC51141EA02316160E36823F06043B0
:100D200043F08043E36021F0C04141F080416160C5
:100D3000204638BD84460020012816DC002100EB47
:100D400040020B4B03EBC203DB688B420BDD00EB75
:100D50004002074B03EBC2039B6853F82130634505
:100D600005D00131EBE70130E6E76FF01500704781
:100D7000488200104FF0000C01E00CF1010C01EB77
:100D800041020A4B03EBC2035B6863450ADD01EBDA
:100D90004103064A52F8333053F82C308342ECD1E9
:100DA000084670476FF01500704700BF488200107A
:100DB0004FF0000C01E00CF1010C01EB41020A4B79
:100DC00003EBC2035B6963450BDD01EB4102064B9C
:100DD00003EBC2031B6953F82C308342EBD1084666
:100DE00070476FF0150070474882001038B5044610
:100DF0000D4901F0F7FB054608B9284638BD00212A
:100E0000204601F0D3FB094B1860002808DB084B93
:100E10001C600549204601F0FFFB064B1860ECE71B
:100E200000231D46E9E700BF08830010B0BA012087
:100E300078BA012074BA01202DE9F04389B0344812
:100E4000FFF7D4FF20B93348FFF7D0FF00285CD06C
:100E500003AFDFF8D080D8F800103846FFF74FFF17
:100E60002D4D012229683846FFF70DFF2B4C2168D4
:100E70003846FFF71EFF4FF480330393059B23F0A2
:100E8000785323F4202343F0805343F40033059335
:100E9000DFF89490224E3B46D8F80020D9F8001095
:100EA000306801F094FC3068D9F80010036801271D
:100EB00007FA01F21343036000973B462A6801F0EA
:100EC00035FC00973B462268D9F80010306801F0E5
:100ED0002DFC316801F12F4101F56001C1F307518B
:100EE0000631C9B2286801F0D7F9316801F12F4104
:100EF00001F56001C1F307510631C9B2206801F064
:100F0000CBF9002009B0BDE8F0836FF00400F9E7E9
:100F10000000305000002050D0B40120C8B401209F
:100F200078BA012074BA0120B0BA0120F0B583B0BC
:100F3000124C2068124D29680368012606FA01F256
:100F400023EA020303600027009733460D4A126824
:100F500001F0ECFB009733460B4A126829682068C1
:100F600001F0E4FB094B1A680949206801F06CFBA9
:100F70002968206801F00CFB03B0F0BD78BA0120AD
:100F8000B0BA0120D0B40120C8B4012074BA012045
:100F90000883001008B50B4B1B787BB10A4B1B78FC
:100FA0003BB1FFF7C3FF0020064B1870064B1870CB
:100FB00008BD064B186801F0EFFCF4E76FF0150070
:100FC000F6E700BFBABA0120BCBA012098A50120FB
:100FD00010B5044601F094F900221146204601F0B4
:100FE00077F94FF0000343EC404043EC44400020CD
:100FF00010BD10B500244FF0000343EC440022461E
:10100000214601F065F9204610BD00002DE9F041B0
:101010009846454B1B78002B6BD105460E4617466C
:10102000FFF788FE041E43DB21463846FFF7C0FE6B
:10103000002861DB3D4B1E603D4B1D603D4B1F603A
:101040003D4B1B78002B44D19E4205DB21463046A8
:10105000FFF790FE002854DB2846FFF7B9FF002871
:1010600052DB002E04DB3046FFF7B2FF00284DDBD9
:101070003846FFF7ADFF00284ADB2846FFF7B9FFE7
:10108000002847DB002E04DB3046FFF7B2FF0028C4
:1010900042DB3846FFF7ADFF00283FDB1CBB274B88
:1010A000274A1A604146254B186801F0CDFC14E030
:1010B00000212846FFF75EFE041E03DB1E4B0122C3
:1010C0001A70B1E701212846FFF754FE041EF5DA35
:1010D00006E0FFF7B1FE002811DB134B01221A7066
:1010E0002046BDE8F081012C1AD1144B154A1A6034
:1010F000D8E74FF0FF34F3E76FF01504F0E704464C
:10110000EEE76FF01504EBE70446E9E70446E7E78E
:101110000446E5E70446E3E70446E1E70446DFE783
:101120006FF01504DCE700BFBABA0120CCB401208F
:10113000D0B40120C8B40120BCBA012098A5012078
:101140000000084000800840F8B52B4B1B78002BAE
:101150004FD005460C46294B1B784BB34FF0000E81
:1011600013E0274B1868274B196815F80E603606F0
:10117000426801F1100C012303FA0CF31A42F7D173
:10118000043140F821600EF1010EA645E9D31C4B55
:1011900019681C4B1A68486818320123934018429A
:1011A000F5D08B608A681A42FCD000242046F8BD36
:1011B000154E0121306801F06FF80121134F386896
:1011C00001F06AF80121124B186801F065F8224617
:1011D0002946104B186806F00BFA04460C4B1868A9
:1011E000FFF707FF3868FFF704FF3068FFF701FFDC
:1011F000DCE76FF01504D9E7BABA0120BCBA0120C8
:1012000078BA0120B0BA0120CCB40120C8B40120C2
:10121000D0B4012098A5012008B50022012101F0D9
:1012200057F8002008BD4FF0010343EC400043ECA9
:101230004400002070474FF0000343EC40004FF0A3
:10124000010343EC44000020704708B5FFF704FD9C
:1012500008BD00000FB400B583B0084803F0E8F9FA
:10126000049B3BB105A90191184603F0F1F904482C
:1012700003F0DEF9012003F0BBF800BF7C7700101B
:101280008C770010EFF3108072B6064BD3E8CF1FB7
:1012900001220029FAD1C3E8412F0029F6D1BFF37A
:1012A0005F8F7047F7A301200023034AC2E88F3FF6
:1012B00080F31088704700BFF7A3012070B5054682
:1012C0000C461646FFF7DEFFE208A95C04F0070CA7
:1012D000012303FA0CF3194205D1DBB20B43AB54E3
:1012E000FFF7E2FF70BD21463046FFF7B3FFF8B5C8
:1012F00005460F4614461E46FFF7C4FF00E00134C2
:10130000B4420ED84FEAD40C15F80C1004F00703C1
:1013100001229A401142F2D1D2B20A4305F80C20C0
:1013200001E04FF0FF34FFF7BFFF002C01DB204648
:10133000F8BD002FFBD00698FFF78CFF38B50546A7
:101340000C46FFF79FFFE1086A5C04F007040123E5
:10135000A3401A4205D022EA03026A54FFF7A4FF11
:1013600038BD034B034A3321034803F047F800BF5D
:101370009077001018830010B0770010054A10789D
:10138000431CDBB21370172B02D9134610221A70BC
:10139000704700BF6AA0012000B583B00146044B2E
:1013A00000931F2318220348FFF7A1FF03B000BDDD
:1013B000F877001060A501204FF0E022936843F019
:1013C0000053936070470000002305E0044A1A446C
:1013D0000021C2E88F1F01331F2BF7D9704700BFD0
:1013E000ECA3012008B50023DB8A002242E800F2CA
:1013F00012F4800F02D11021984708BD04219847AC
:10140000FBE70000034BD3F82838002BFAD0BFF3DA
:101410005F8F704700000E40002207E0054B134429
:101420009B00BFF35F8F002119600132072AF5D9B5
:10143000704700BF0382031008B5FFF7EDFF08BD3A
:101440000246EFF30583DBB2103B990804D0034852
:1014500003F00303136070470148F9E700800B4075
:1014600000000B4000B5D0F828C0A2EB0C0E0B1DFD
:1014700050F82330A3EB0C039E4506D3D0F820C0D0
:1014800001238B401CEA030F02D1043140F82120D4
:1014900000BD41EA004070470D4B1A68EFF3108120
:1014A00072B6D2E8CFCF0120BCF1000FF9D1C2E86B
:1014B0004C0FBCF1000FF4D1BFF35F8F1A6800230B
:1014C000C2E88F3F81F3108840BF002000217047A1
:1014D000ACBA01202DE9F04F85B003A8FFF7B0FFAB
:1014E000954B984214BF00230123039901EB83031A
:1014F000924A52F823402378994206D105460122A8
:101500008A4000F541535A602CE18D4B8D4A92215F
:101510008D4802F073FFD4F8149006EB46074FEAAB
:10152000C70A09EBC707D7F808B0D7F80C802846D8
:1015300000F0B4FBB0EB0B0061EB0803002BC0F232
:101540001A81B8F1000F64DB3B691A4600937F4BA8
:101550009A4230D0798889B2B4F90800FFF799FF30
:101560007969009B9847009001910099019A51EA8E
:1015700002034ED01346002A29DABBEB010268EBC6
:101580000308BA60C7F80C8039F90A70002FC0F25E
:10159000F280D4F814E007EB47030EEBC30399681D
:1015A000DB68511A68EB0303002BC0F2E480A44609
:1015B0002CF8087F17E07A69136900921046984763
:1015C00038B3009A1368009353680193CDE7284617
:1015D00000F064FB009B1A18019B43EB0108D0E765
:1015E0009C463EF90B70002F0EDBBCF9003003EB7C
:1015F00043034FEAC30B0EEBC3039868D968101A74
:1016000068EB01010029EBDA29F80A70ACF80060F8
:10161000B1E039F90A3023812369EFF3108272B601
:10162000D3E8CF0F01210028FAD1C3E8401F0028DA
:10163000F6D1BFF35F8FB4F9023029F80A30668023
:1016400021690023C1E88F3F82F3108893E023696A
:10165000EFF3108272B6D3E8CF0F01210028FAD140
:10166000C3E8401F0028F6D1BFF35F8FB4F80480B1
:101670000FFA88F84FF6FF73A38021690023C1E8B1
:101680008F3F82F310881AE01F4630F90A60002E5F
:101690000FDBB7F9003003EB43034FEAC30A00EB5B
:1016A000C3039968DA68BCEB01016EEB0202002A01
:1016B000EADAA7F8008030F9098020F80960B8F16B
:1016C000000F5DDB606908EB48034FEAC30900EBDC
:1016D000C303D3F808C0D3F80CE004F10807B4F949
:1016E0000860D4E70023A37104F1080CB4F90830B2
:1016F00010E04FF0FF384FF0FF39C0E90289B4F92C
:101700000800984205D0ACF80020B4F90800C8538E
:1017100023811346B3F1FF3F35D0616903EB4302E8
:10172000D70001EBC20031F93220468816F4004F91
:10173000DFD18446EDE700BF00800B407CBA01207A
:10174000147800104083001040780010D514001069
:10175000284600F0A3FA3F1A66EB0106012F76F146
:10176000000628DA039A01239340EB63B4F908607A
:10177000002EBFF6D0AEA38813F4004F3FF467AF3E
:10178000A379002BAED1B4F90830002B13DB6269CA
:1017900003EB430302EBC3039F68DE68B6F1FF3F30
:1017A00008BFB7F1FF3FD3D03A46334603992846E6
:1017B000FFF758FECCE740BF05B0BDE8F08F00BF93
:1017C000F8B504460D4611460A4B984210D0002643
:1017D0002E44012707FA05F52562304600F038FB54
:1017E0003946304600F022FB04F501542560F8BD6F
:1017F0000426EDE700800B40F8B504460E46174678
:101800001D46C160FFF7BAFD164B034423612770E4
:10181000ABB263814FF05042127862704FF6FF72A4
:101820002281A280013B63804FF0000C08E00CF1A4
:10183000FF300CEB4C0E636923F83E000CF1010CF9
:10184000AC45F4D3084B9E4214BF0023012307EBA1
:101850008303064A42F82340054A39463046FFF7DB
:10186000AFFFF8BDECA3012000800B407CBA012043
:10187000D514001008B5054B1B690BB1034808BD12
:10188000034B044A6521044802F0B8FD6CA0012016
:10189000807800102883001040780010F8B50446C6
:1018A0009E460069EFF3108172B6D0E8CF6F012534
:1018B000002EFAD1C0E8465F002EF6D1BFF35F8F4D
:1018C000B4F90250666905EB4500C70006EBC0009D
:1018D000002D03DB36F907C0A4F802C04FF0000C5E
:1018E0002369C3E88FCF81F31088654533DB069900
:1018F0000161079941618260C0F80CE0418889B2BA
:101900000131C1F30E0101B9012141802846FFF7E1
:10191000C0FD2369EFF3108272B6D3E8CFCF012167
:10192000BCF1000FF9D1C3E84C1FBCF1000FF4D19A
:10193000BFF35F8FA388F353A58021690023C1E81B
:101940008F3F82F31088E368217801228A4003F5F3
:1019500001535A60F8BD4FF0FF30FBE770B582B01D
:10196000064615461C469DF8203033B900F0C0F9F4
:10197000854264EB010100290ADB079B0193069B6A
:1019800000932A4623463046FFF788FF02B070BD19
:101990000020FBE7F0B585B007460E4615461C460D
:1019A000FFF768FF9DF828300293019400953A46AE
:1019B0003346FFF7D3FF05B0F0BD03464089B0EBD7
:1019C000214F31DD10B50A14586902EB420200EBD9
:1019D000C2001A69EFF3108C72B6D2E8CF4F5FF0F5
:1019E000010E002CF9D1C2E844EF002CF5D1BFF371
:1019F0005F8F428892B289B28A420FD00020196963
:101A00000022C1E88F2F8CF3108830B1DA681B7880
:101A10000121994002F50153596010BD42F4004282
:101A2000428001209871EAE70020704710B5044613
:101A3000FFF720FF2146FFF7C0FF10BDF0B583B0D0
:101A4000EFF30583DBB2CBB904460D46861F41F1A7
:101A5000FF37B04271EB070301D20026374600F092
:101A600047F9301A67EB0103012873F1000308DA24
:101A70002046294600F04EF903B0F0BD1848FFF7A4
:101A8000E9FB00230093174A30463946FFF782FFEF
:101A9000002819DAECE7144B1A68EFF3108172B6DC
:101AA000D2E8CFCF0120BCF1000FF9D1C2E84C0F32
:101AB000BCF1000FF4D1BFF35F8F1A680023C2E8B6
:101AC0008F3F81F3108820BF084B5B6A9F42E2D8AA
:101AD000064A926AB242CBD29F42C9D1DBE700BF2D
:101AE000A478001099140010ACBA012000000B403B
:101AF00038B505460C4600F0FBF8281844EB010108
:101B0000002902DBFFF79AFF38BD4FF0FF306FF07E
:101B10000041F7E708B5C30E4101091A63F100035C
:101B20009B0043EA91738900091843F10003DB002D
:101B3000C80043EA5171FFF7DBFF08BDF0B583B081
:101B40000C46EFF30583DBB293B13A4B5B6A8B42F1
:101B500009D3384A926A824208D2A34201D00120B6
:101B600002E0002000E0002003B0F0BD0120FBE710
:101B70000546FFF77FFEC3681F460678184600F04B
:101B80008DF82A1A64EB0101331D57F823301B1A14
:101B90009A4271F1000112DB20BF264B5B6A9C4226
:101BA00009D8244A926AAA4207D29C4201D0012055
:101BB000DAE70020D8E70020D6E70120D4E70023A9
:101BC00000931D4A28462146FFF7E4FE002818DD51
:101BD000184B5B6A9C4205D8164A926AAA4202D206
:101BE0009C4200D120BFFFF721FF124B5B6A9C4251
:101BF0001BD8104A926AAA4219D29C4213D00120E3
:101C0000B2E70C4B5B6A9C4209D80A4A926AAA4224
:101C100007D29C4201D00120A6E70020A4E70020C3
:101C2000A2E70120A0E700209EE700209CE701201A
:101C30009AE700BF00000B4099140010004870475D
:101C400000000B4010B50A4B1B6923B10A2109485B
:101C500000F0C8FA10BDFFF7F1FF0446032100F0C1
:101C60000BF81023032221460148FFF7C5FDEDE7DD
:101C70006CA00120ACBA012008B5054ADFF818C0F5
:101C8000044B604514BF1846581CFFF717FB08BDEE
:101C9000F478001064A5012000800B400246436ADE
:101CA000906A1946536A9942FAD17047416A00E036
:101CB000416A9942FCD300E0416A994202D1816AAB
:101CC0009142F9D3704770B5064615461C46FFF79A
:101CD000E5FF421941EB0403824273EB010102D29A
:101CE0004FF0FF3213463046FFF7E0FF70BD0000B3
:101CF00008B50248FFF7D2FF08BD00BF00000B4047
:101D000008B502460B460248FFF7DDFF08BD00BFDD
:101D100000000B4008B502460B460248FFF7C6FF1D
:101D200008BD00BF00000B40064B9B68103043F815
:101D30002010BFF35F8F00230349C1E88F3F82F378
:101D40001088704700ED00E0F5A3012000487047BF
:101D500000E400E008B5FFF7F9FF002304E04FF0CE
:101D6000803240F8042B01330C2BF8D962B608BD41
:101D700008B50388DA0A1C2A06D15B050BD45B156B
:101D8000023300EB430008BD064B074A4FF48E7147
:101D9000064802F033FB03F5FF1303F5FF531F332F
:101DA000EDE700BF18790010808300103079001033
:101DB00008B5091A01F2FC7240F6FE739A4208D87F
:101DC000081F11F0010F04D1C0F34A0040F4604035
:101DD00008BD034B034A4FF48771034802F00EFB22
:101DE0007879001074830010307900104209064B96
:101DF00053F8222000F01F00012383401A4214BF31
:101E000001200020704700BF00E100E03AB1064B1E
:101E100000F1600243F8221043F820107047203090
:101E2000014B43F82010704700E100E008B50A4676
:101E300000F01F03012199404009FFF7E7FF08BDAB
:101E4000024B9B68103053F82000704700ED00E013
:101E500070B505460C46EFF3108372B61E460F4B65
:101E6000D3E8CF1F01220029FAD1C3E8412F00296E
:101E7000F6D1BFF35F8FFFF7E3FF094B984201D024
:101E8000A04205D1324621462846FFF74DFF70BDDE
:101E9000044B054AED21054802F0B0FAF5A30120F4
:101EA00011010010A8790010A883001030790010EB
:101EB0002DE9F04F87B000911546EFF3108372B60D
:101EC0009B467C4BD3E8CF1F01220029FAD1C3E8FF
:101ED000412F0029F6D1BFF35F8F774B93F9004074
:101EE000002C44DB804604EB4407744B03EB87076C
:101EF00097F90610704A1170714A926800F110014A
:101F000052F82190A9EB03022F2A3ED96D4B994537
:101F100034D14FF42143ADF80C304FEA440904EBBF
:101F20004400664E06EB800067490230FFF740FF31
:101F3000ADF80E004BF60153ADF81030FF238DF8CD
:101F400012308DF81350009B0593A14406EB8903D2
:101F500006AA12E9070083E8070047F001095A467C
:101F600049464046FFF7E0FE07B0BDE8F08F574B0B
:101F7000574A4FF4BE71574802F040FA564B544A44
:101F800040F28311534802F039FA29F001029246D7
:101F9000D31A524AA2FB0312D20802EB4202B3EB5D
:101FA000820F0FD153460026DA79AA4212D993F94B
:101FB0000620002A0DDB02EB42021E463F4B03EBDC
:101FC0008203F1E7464B424A4FF4CA71414802F09E
:101FD00015FA1E46A6B344F60103ADF80C304FF4D3
:101FE0008F43ADF80E3096F906309A46002B1ADA78
:101FF0004BF60150ADF810008DF812A08DF813507B
:10200000009B05933946301DFFF7D2FEB080B471B6
:1020100004EB4404294B03EB840306AA12E90700EE
:1020200083E807009BE7301DFFF7A2FE014604EBA3
:102030004402224B03EB8203181DFFF7B9FED9E7D8
:102040004FF42143ADF80C306300019304EB4406D8
:10205000DFF8689009EB86061B49B01CFFF7A8FE65
:10206000ADF80E005146301DFFF7A2FEADF810008E
:102070004AF6AA2352464946521A524153431B0D6F
:102080008DF812308DF8135000990591019B23446F
:1020900009EB830906AB13E9070089E8070044F65A
:1020A0000103AAF800304FF48F43AAF8023047F03A
:1020B000010954E7F5A30120BBBA012084A0012047
:1020C00000ED00E011010010B4A00120E079001043
:1020D0009083001030790010087A0010ABAAAAAAE9
:1020E000307A001038B540F00104344BE31A2F2B3E
:1020F00035D8EFF30581C9B2002937D0EFF3108E40
:1021000072B62F4BD3E8CFCF0122BCF1000FF9D12B
:10211000C3E84C2FBCF1000FF4D1BFF35F8F4AF638
:10212000AA230246DFF894C06546521B524153432E
:102130001B0D4FFA83FC234B9B6853F82130A342BD
:102140001BD00023032B32D803EB43011B4A02EBC5
:10215000810292F90620624520D00133F2E71A4B42
:102160001A4A40F27F211A4802F048F9194B174ADF
:1021700040F28221164802F041F9124B9B68164A40
:1021800043F82120154B1A78827183F800C0002390
:102190000B4AC2E88F3F8EF3108838BD074A02EB26
:1021A0008101FF248C714BF601538B80EAE70C4BC5
:1021B000064A40F29321064802F020F984A001204B
:1021C000F5A3012000ED00E0B47A00105883001060
:1021D00030790010DC7A001011010010BBBA012028
:1021E000E87A0010014B0B4403607047ECA3012018
:1021F00010B50446FFF7C2F801462046FFF7F2FF8C
:10220000FF232371BFF35F8F10BD10B50446FFF7A6
:10221000B5F801462046FFF7E5FFFF2323710023B1
:102220006371BFF35F8F10BD10B50D4C09E00D4B0E
:102230000D4A1A210D4802F0E1F82046FFF7D8FFB9
:1022400008340B4B9C4209D22368002BF5D0012B9C
:10225000EDD12046FFF7D9FF0834F2E710BD00BFEB
:10226000F0A00120F07A0010E8830010107B00102D
:1022700000A10120024B0B440360BFF35F8F704746
:10228000ECA3012010B504460120FFF785F80146B4
:102290002046FFF7EFFF10BD0C4B03EB800253F815
:1022A000203083F0400303F0C00302F5805CCCF8DB
:1022B0000030C00000F1804000F52030416002F5A0
:1022C00040524FF480731360704700BF0480034096
:1022D00000B5DFF828E00EEB800C69B1082302B1ED
:1022E000042213435EF82020534003F00C030CF546
:1022F000805CCCF8003000BD0B46F0E70480034062
:1023000008B54FF0000242EC440042EC40000521C9
:10231000FFF7C2FF08BD0022026042608260C26017
:1023200002614FF0FF3202614FF4803202604FF4DD
:10233000F83242604FF4802282604FF44022826083
:102340007047000010B5146801EB410300EBC303B4
:10235000C3F8C8409468C3F8D04014696FEA040C0D
:102360001E4B03EA1C130CEA5C0C03EA5404D0F87D
:1023700068E11CEA030F02D0BEF1000F27D104B3BD
:10238000BEF1000F26D054684FEA135C4FEA0C7C74
:1023900084EA0C0C01EB410400EBC404C4F8CCC08B
:1023A000D268BEF1000F02D01B034FEA132E82EA5F
:1023B0000E0201EB410100EBC100C0F8DC2000205F
:1023C00010BD5468BEF1000FDED1F446E0E76FF0B7
:1023D0000A00F5E76FF00A00F2E700BF2184100061
:1023E0000A4609B110290CD100F12F4303F560030F
:1023F0001B0D074951F8233033B9C0F8682118463E
:1024000070476FF00A0070476FF00B00704700BF15
:1024100054A50120D0F8683123B111F0010F06D086
:102420000020704711F0040F03D0184670470120B8
:1024300070470120704708B5C979FFF7EBFF08BD69
:1024400070B506460C461546FFF7F5FFD0B194F976
:102450000530002B01DBAB4217D106F12F4000F510
:102460006000000D0A4B53F820102279012393409D
:10247000013B03FA05F20A4201D1002070BD6FF062
:102480000800FBE76FF00A00F8E76FF00A00F5E7D5
:1024900054A5012070B504460D461646FFF7D0FF3F
:1024A00090BB84460FE013F0600F17D1D4F8682179
:1024B00092B2534012E00CEB060E0EF1120E44F8ED
:1024C0002E300CF1010C2B7963450CD92B6833F8B5
:1024D0001C3003F46042B2F5005FE4D0B3F5005F56
:1024E000E9D23344E7E7012202FA03F3013B04F1A6
:1024F0002F4404F56004240D044951F82420B3400E
:102500001A4341F82420304670BD00BF54A5012075
:1025100008B50A79202A1CD88C4600F12F4000F516
:102520006000000D164B53F8201001239340013B2F
:102530009CF905C0BCF1000F11DB6046C2F120021E
:10254000944519DC03FA0CF30B4201D04FF0FF3035
:1025500008BD0C4B0C4A43210C4801F04FFFC2F15F
:102560002000002805DB03FA00F20A42F0D001380F
:10257000F7E76FF00800EBE74FF0FF30E8E700BF48
:1025800054A50120A87B001010840010D47B0010FB
:1025900008B500F12F4000F56000000D01EB80014F
:1025A0000148FEF7CBFE08BD68A5012010B582B03A
:1025B00000F12F4000F56000000D8400074B0093F0
:1025C000E31C22460648FEF792FE844202DC001B12
:1025D00002B010BD4FF0FF30FAE700BF1C7C0010C6
:1025E00068A50120F8B505460E46FEF74BFE0746E6
:1025F00031462846FFF78CFF041E06DA3846FEF700
:1026000053FEB4FA84F04009F8BD2246314628460C
:10261000FFF716FF0446F1E7F8B505460E46FEF74C
:1026200031FE074631462846FFF772FF041E04DAE2
:102630003846FEF739FE2046F8BD22463146284688
:10264000FFF728FF0446F3E738B505460B79012468
:102650009C40013C9440FEF715FE05F12F4303F525
:1026600060031B0D094A52F8232034EA020107D106
:1026700022EA0402054941F82320FEF715FE38BD81
:10268000034B044ACB21044801F0B8FE54A50120B5
:10269000407C0010FC830010D47B001070B5144601
:1026A0001A4601EB410300EBC303D3F8DC60D3F817
:1026B000CC5001EB4103DB00C833034403F5405326
:1026C0004FF4003CC3F804C019E092FAA2FCBCFA33
:1026D0008CFC4FEA4C1343F0806301EB410E00EB9E
:1026E000CE0ECEF8DC3024FA0CF303F0010343F4F1
:1026F000604343F08003CEF8D830531E1A40002ABE
:10270000E3D101EB410300EBC303C3F8DC60C3F882
:10271000CC5070BD08B5D0F868E1D0F868C123FA94
:102720000CF322FA0EF2FFF7B9FF08BD70B51E4692
:102730009DF810C0D0F86831D21A1F2A44D801EB96
:10274000410300EBC303D3F8DC50D3F8CC4001EBDA
:102750004103DB00C833034403F540534FF4003E0C
:10276000C3F804E0BCF1000F2BD1E64612E05301A0
:1027700043F0A05301EB410C00EBCC0CCCF8DC3067
:102780004EF4604343F08003CCF8D830053E053268
:1027900002F01F02052EEAD8520142EA866601EBDA
:1027A000410200EBC202C2F8DC604EF4604343F029
:1027B0008003C2F8D830C2F8DC50C2F8CC40002008
:1027C00070BD4FF01F0EE5E76FF00400F8E770B53D
:1027D00086B005460C46164602680121A14022EA51
:1027E0000102026043B31A462146FFF7ABFD08BB66
:1027F00004EB4403DB00D0332B4403F580534FF04C
:1028000000421A601A604FF00133A340AB60221DF2
:10281000012303FA02F205F500510A6004F10802EF
:1028200093400B6006F01F0304EB440405EBC40562
:10283000C5F8D83006B070BD01A8FFF76CFD01AA3D
:1028400021462846FFF77EFDD1E72DE9F04F87B0FE
:1028500001900E4602920393109BDDF844B09DF860
:102860004810BBF1000F09D01809012202FA00F04C
:102870005B44013B1B099A4040EA020B11B1022460
:1028800000256AE00124FBE701239F4210D20021CA
:102890003068FFF78BFE40B207F118036B4403F872
:1028A000040C002804DB0137002DEDD00423ECE7F5
:1028B00017B165B1042F0AD0434603F1FF38002B4E
:1028C0004AD003F201531B0533600027ECE7FEF703
:1028D000D9FC824675B959463068FFF79BFD88B927
:1028E0006FF00A095046FEF7DFFC6FEA090A4FEA6B
:1028F000DA7A2AE04FEA8B0101F010013068FFF725
:102900006FFDE8E73368019900931846FFF700FE72
:10291000B0F10009E6DB4A4601990098FFF7BAFDDD
:10292000B0F10009DEDB9DF91430029A1360039BBD
:10293000C3F80090D6E70AF118036B4413F9041C9E
:102940003068FFF725FE0AF1010A5745F3D8B9F1BF
:10295000000FB1DB012006E00135AC4201DD0323AD
:10296000ABE70020306007B0BDE8F08F074B98421E
:102970000AD0132301229A40054B1A60054B9B682D
:1029800032EA0303FAD170471223F3E7000008404C
:10299000003002400000024000F5405302225A601D
:1029A00000F5405303225A62054B984205D013228A
:1029B00001239340034A136070471222F8E700BFD7
:1029C000000008400020024070B505460C46062075
:1029D00000F0F2F8AE465EF8046F06F002060EF55F
:1029E000405202231360FE2B09D81A02A2FB0421D5
:1029F00090424FF000028A4104D30233F3E74FF4D0
:102A0000807101E04FF48071012909D901F1FF3C87
:102A100003FB0CF2B0FBF2F2A24201D86146F3E7ED
:102A20002B614C1E2A6882EA042202F47F4205F5DB
:102A300080552A600EF5005ECEF8006001FB03F3BE
:102A4000B0FBF3F070BD000038B504460D46174BDF
:102A5000984229D0132201239340154A136020463F
:102A6000FFF784FF29462046FFF7AEFF234653F8C1
:102A7000041F01F0020103F540524FF0020CC2F8AE
:102A800000C0226882F0070202F0CF0204F5805EE7
:102A9000CEF8002003F50053196004F5005403221A
:102AA0006262C3F800C038BD1222D4E700000840BB
:102AB000002002400D280BD00F280BD015280BD07A
:102AC00017280BD018280BD019280BD008467047B0
:102AD0000020704701207047002070470120704798
:102AE000022070470320704770B515461E4600EB64
:102AF000400C4FEA8C0C0CF1804C0CF5803CDCF85F
:102B00000430049A934201D2CCF80420041FE4B2AA
:102B1000012C2AD90CF540534FF400621A60204B67
:102B200053F820204AB15B69B3FBF2FE0EF1010EAF
:102B30000EEB4E0EBEF1030EFCD2DCF8002082EA52
:102B4000451202F0E0020CF5805ECEF80020012C68
:102B500017D90CF500534FF400621A60049BCCF8AF
:102B600004300F4B43F8206070BD0129D2D10CF521
:102B7000405303221A60DCF8083013F0010FFAD03A
:102B8000DBE7DCF800304B4003F00303CEF8003005
:102B9000DCF8083001228A401342F9D0D9E700BF9F
:102BA0006CA5012000B583B04FF4803CCDF800C087
:102BB000FFF79AFF03B000BD014B53F820007047A8
:102BC0006CA50120F8B507460E4615461C460021A7
:102BD000FFF770FF710141F40061084B00EB400208
:102BE0009200995044EA054200EB400003EB800359
:102BF0005A6009213846FFF74FFBF8BD000001403D
:102C000038B58E469446049A3349B1FBFEF1334CF5
:102C10006444334DAC4234D8BCFBF1F4A4F110054C
:102C2000B5F5987F33D85D1E062D36D8551E062D76
:102C300033D8B1EB1C1F36D8120342EA03410368B4
:102C4000002B36DB274B984243D00E2301229A40BB
:102C5000254B1A6003F580531A60244B9B6832EAB7
:102C60000303FAD1C0F800E0846000F5405204325A
:102C7000212313600368002BFCDAC1600823136072
:102C800038BD1B4B1B4A11211B4801F0B7FB1B4BE6
:102C9000184A1921184801F0B1FB194B154A1C219B
:102CA000154801F0ABFB174B124A2321124801F0E3
:102CB000A5FB036803F03F037345C3D18368C3F3E7
:102CC0000B03A342BED1C36803F4EE238B42B9D1F8
:102CD000D6E70F23BAE700BF001BB70080E84BD34D
:102CE00080F8A93200800540002002400000024028
:102CF000907C001028840010E07C0010287D0010DB
:102D0000447D0010907D0010054A00EB400302EB6B
:102D10008303596000EB400080000123135070478B
:102D200000801040074B4FF42A621A604FF43C6257
:102D3000DA6003F50053044A1A60024B5B68002B0B
:102D4000FBDA70470080044000B0FA0000B583B0A1
:102D50000146044B00930F2300220348FEF7C7FAF5
:102D600003B000BDAC7D0010B4BA012010B504461C
:102D700002E054F8043B9847014B9C42F9D310BD44
:102D8000387600107047000008B50248FFF7EEFFE4
:102D900008BD00BFF875001008B50248FFF7E6FF50
:102DA00008BD00BF24760010064B074A1A6003F5E1
:102DB0008053064A1A60064B9A68044B9343FAD133
:102DC000704700BF002002407F3BEFEFF6FFF303A8
:102DD00000000240054BDB6CB3F5004F00D070479C
:102DE000034B4FF48022DA64F9E700BF0000115072
:102DF000002011504FF0E022D2F8881D034B0B4306
:102E0000C2F8883D10EE3004704700BF0303300065
:102E1000054B6FF060421A60044B9B68DB4333F054
:102E20006043F9D1704700BF00300240000002400B
:102E300008B545F25320FEF7D5FA0346042098471B
:102E400008BD08B545F25320FEF7CCFA0346012031
:102E5000984708BD08B5FEF7B7FA08BD10B50C498C
:102E60000C4A521A92101446442A28BF4422920057
:102E7000094804F003FB04E0084A074B43F8242008
:102E80000134432CF8D9044A054B9A6010BD00BFA9
:102E900000000010100100100000002011010010BF
:102EA00000ED00E038B50420FFF786FE064BA3FBDB
:102EB0000035AD0C002404E02946E0B2FFF724FF02
:102EC0000134052CF8DD38BD83DE1B4330B583B0FB
:102ED000264B0022C3F88420FFF724FF244B012255
:102EE000DA63224B5B6C012BFBD1214B03221A636B
:102EF0001E4B9B6B012BFBD10224009405231D4A22
:102F000001211D48FFF77CFE052500952B461B4A35
:102F100001211B48FFF774FE1A4B002221460420B2
:102F2000FFF740FE184C2346002201212846FFF7F8
:102F300039FE164D2B46002211460820FFF732FEBF
:102F40002B46002211460920FFF72CFE23460022C3
:102F500011460620FFF726FE2346002211460720D1
:102F6000FFF720FEFFF79EFF03B030BD00000140D9
:102F700000300140002F685900000540008C864752
:102F800000800540001BB70080D1F008006CDC0217
:102F900086B003B451FC0804CDE9020151FC0904D8
:102FA000CDE9040151EC0A04CDE9060103BCF04768
:102FB000BDE800504EEC00C4BDE800504EEC01C42A
:102FC000BDE800504EEC02C400BD000000B5FFF7A4
:102FD000DFFF02E010FE30F4F8D441EC100443ECC3
:102FE000112400EE010410EE010480EE200451ECE7
:102FF0001004704700B5FFF7CBFF02E010FE30F47D
:10300000F8D441EC100443EC112400EE010410EE5E
:10301000210480EE200451EC3004704700B5FFF726
:10302000B7FF02E010FE30F4F8D410B541EC100404
:1030300043EC112451EC040453EC0524A0FB024C96
:103040005FF0000EE0FB03CEE1FB02CE4CEC20442F
:103050000024E1FB03E444EC30E480EE200451EC76
:103060005004BDE81040704700B5FFF791FF02E043
:1030700010FE30F4F8D441EC100443EC112451EC70
:103080002104A0FB01126FEA820252FB100052FBE6
:1030900012F252FB1000A0EBD07C53EC04245CFB3A
:1030A00013F153EC1524A1FB022001FB030053ECA8
:1030B0004424A2EB000050FB1CF24FEA111312EB68
:1030C000017043EBE27140EA515020EA915020F048
:1030D000070053EC7524A0FB023C53EC752400FB65
:1030E00003CC01FB02CC53EC0424ACEB824C40EA51
:1030F0005C70A0F1010041EC400480EE200451EC32
:103100007004704700B5FFF743FF02E010FE30F493
:10311000F8D440EC700400EE010410EE210480EEBF
:10312000200451EC3004704700B5FFF731FF02E096
:1031300010FE30F4F8D440EC600400EE010410EE10
:10314000210480EE200451EC3004704700B5FFF7F5
:103150001FFF02E010FE30F4F8D441EC800400EED2
:10316000010410EE010480EE400410EE13047047D9
:1031700000B5FFF70DFF02E010FE30F4F8D441EC8B
:10318000800400EE010410EE010480EE400410EE15
:103190003304704700B5FFF7FBFE02E010FE30F489
:1031A000F8D441EC100443EC112400EE010410EEBD
:1031B0003004C0F30070704700B5FFF7E9FE02E08D
:1031C00010FE30F4F8D443EC102441EC110400EE6E
:1031D000010410EE30F48CBF01200020704700BFC6
:1031E00000B5FFF7D5FE02E010FE30F4F8D443EC52
:1031F000102441EC110400EE010410EE30F42CBF59
:1032000001200020704700BF00B5FFF7C1FE02E0BB
:1032100010FE30F4F8D441EC100443EC112400EE1D
:10322000010410EE30F42CBF01200020704700BFD5
:1032300000B5FFF7ADFE02E010FE30F4F8D441EC2B
:10324000100443EC112400EE010410EE30F48CBFA6
:1032500001200020704700BF704720B108B50A6800
:103260004968904708BD70470146002008E000EB20
:103270008000531C0B60137803EB4003A3F1300074
:103280000A681378303BDBB2092BF0D970472DE97F
:10329000F04F83B005460E4693461F46DDF830805A
:1032A0000D9CDDF838900F9B13F00202009228D19C
:1032B00013F0010F0FD05A461BE002F1010B3B4601
:1032C00031462020A8470AF1010A5A46CA45F4D3DC
:1032D000DDF804B00DE0A2465A46CDF804B0F5E79B
:1032E000013C02F1010A3B46314618F80400A847A8
:1032F0005246002CF4D1009B5BB9104603B0BDE8E8
:10330000F08F5A46F5E7541C3B4631462020A8472B
:103310002246A2EB0B034B45F5D3EEE72DE9F04136
:1033200084B004460D4616461F46DDF828E0DDF859
:103330002CC09DF830301A4698460E980F99109B75
:1033400013F0020F21D169B113F0010F0AD012B9A5
:1033500013F00C0F06D0013904E030220EF80C20D7
:103360000CF1010C844502D2BCF11F0FF5D913F00A
:10337000010F0AD08C4508D2BCF11F0F05D83022AE
:103380000EF80C200CF1010CF1E713F0100F17D020
:1033900013F4806F06D1BCF1000F03D0844529D00F
:1033A0008C4527D00D9A102A3CD00D9A022A47D07E
:1033B000BCF11F0F0FD830220EF80C200CF1010CBD
:1033C000BCF11F0F07D84246002A42D02D220EF82A
:1033D0000C200CF1010C03930291CDF804C0CDF840
:1033E00000E03B46324629462046FFF750FF04B036
:1033F000BDE8F081BCF1010220D00D9810280FD05B
:1034000094460D9A102AD0D113F0200FCDD0BCF1E4
:103410001F0FCAD858220EF80C200CF1010CC7E778
:10342000ACF1020C13F0200FEBD1BCF11F0FE8D868
:1034300078220EF80C200CF1010CB9E79446B1E7A4
:10344000BCF11F0FC7D862220EF80C200CF1010C42
:10345000AEE713F0040F05D02B220EF80C200CF170
:10346000010CB8E713F0080FB5D020220EF80C209D
:103470000CF1010CAFE7F0B591B00D4616461F46B2
:10348000169B189A1B990BB921F0100111F4806E4C
:103490001DD063B34FF0000E19E011F0200F24D0BF
:1034A0004124A4445FFA8CFCACF10A0C5FFA8CFC5A
:1034B0000EF101040EF1400EEE440EF820CCB3FBE9
:1034C000F2FC934214D31F2C12D8A6466346B3FBDA
:1034D000F2FC02FB1C3C5FFA8CFCBCF1090FDCD84F
:1034E0000CF1300C5FFA8CFCE2E76124D9E71C4652
:1034F00006911A9B0593199B049303929DF85C30E7
:103500000293019408AB00933B4632462946FFF7ED
:1035100005FF11B0F0BD2DE9F04F95B0834609913C
:103520000A920B931E9F1F9DDDF88880DDF88C901A
:10353000DDF898A057EA050301D12AF0100A1AF421
:10354000806422D057EA05032DD000241DE01AF034
:10355000200F26D041231344DBB20A3BDBB2661CAA
:1035600004F150020DEB020404F8203C42464B46A5
:103570003846294604F02CF8474575EB090513D366
:103580001F2E11D8344607460D4642464B46384654
:10359000294604F01DF8D2B2092AD8D83032D3B265
:1035A000DDE76123D7E70026CDF818A0259B05931A
:1035B000249B0493CDF80C809DF8803002930196F3
:1035C0000CAB00930B9B0A9A09995846FFF7A6FE8D
:1035D00015B0BDE8F08F00002DE9F04F93B0044620
:1035E0000D460E921E46DDE91C8942464B4640467A
:1035F0004946FFF7D3FD002840F0FE804FF0FF3230
:10360000B54B40464946FFF717FE002840F0F480CE
:103610004FF0FF326FF4801340464946FFF7D0FD6C
:10362000002840F0E9800022002340464946FFF789
:10363000C7FD002840F0F180CDE90689209B13F4F6
:1036400080630F9301D106231E93DDE906AB52463A
:103650005B46CDE90A23079B5AEA030100F0E780A5
:10366000C3F30A50C3F313034FF0000A4FF0000BEB
:10367000CDE908AB089243F07F53099343F440131C
:103680000993A0F2FF30FFF741FD81A3D3E90023A6
:10369000FFF7C8FC80A3D3E90023FFF79BFC824619
:1036A0008B4600228D4BDDE90801FFF7A7FC7CA3C8
:1036B000D3E90023FFF7B6FC02460B4650465946B5
:1036C000FFF788FCFFF746FD0890FFF71FFD8246D5
:1036D0008B4675A3D3E90023FFF7A4FC0022804B9F
:1036E000FFF778FCFFF736FD074671A3D3E9002307
:1036F00050465946FFF796FC82468B463846FFF700
:1037000005FD6DA3D3E90023FFF78CFC02460B46B1
:1037100050465946FFF772FC02460B4682468B46DE
:10372000FFF780FCCDE90C0107F2FF3300210022F6
:10373000CDE90A121B050B9300230A935046594604
:1037400052465B46FFF746FCCDE9100152465B4608
:1037500000204FF08041FFF751FC82468B4600224B
:10376000604BDDE90C01FFF783FC00225E4BFFF7A5
:1037700031FC02460B46DDE90C01FFF779FC002223
:103780005A4BFFF727FC02460B46DDE90C01FFF719
:103790006FFC02460B4650465946FFF71BFC02469B
:1037A0000B46DDE91001FFF763FC0022504BFFF7E9
:1037B00011FCDDE90A23FFF735FC02460B46CDE993
:1037C0000C23DDE90CABCDE90AABDDE90623FFF7FD
:1037D00033FD50B1089B013B08930022424BDDE9C9
:1037E0000C01FFF745FCCDE90A01089B6333C62BAA
:1037F00048D804231F461EE0209B04931F9B03937D
:103800001E9B0293CDE9008933460E9A2946204635
:1038100000F002F913B0BDE8F08F9FED297B8DED2C
:10382000067BCDF8188009F10043079306E70023D3
:10383000089304231F46209B13F4006F63D0DDE937
:103840000A1213460B4315D01FA3D3E90023DDE969
:1038500006AB50465946FFF7DBFC002800F0B68067
:103860001BA3D3E9002350465946FFF7A9FC0028C3
:1038700000F0AC801E9A089B9A423BDDD31A013BB4
:103880001E9339E005231F46D5E700BFAFF3008044
:10389000FB799F501344D33FB3C8608B288AC63F3F
:1038A00061436F63A787D23F71A379094F930A40A1
:1038B0001655B5BBB16B0240EF39FAFE422EE63F1A
:1038C00000000000000000002D431CEBE2361A3F10
:1038D0000000000080842E41FFFFEF7F0000F83FD2
:1038E0000000E03F00002C40000024400000184091
:1038F0000000F03F00231E93209B43F4806320933D
:1039000000231F4608931F9A974269D2D31B9A46F9
:10391000209B13F002039B4602D00FB100239A466E
:10392000089B3BB1DDE90A23DDE90601FFF7A0FBB7
:10393000CDE906010022002340464946FFF740FC3E
:10394000002850D1209B23F400630493CDF80CA0F1
:103950001E9B02939DED067B8DED007B33460E9AF8
:103960002946204600F058F8002F3FF453AF209B23
:1039700013F0200F3FD04FF0450C00F10108334603
:10398000024629466046A047089981EAE172A2EB07
:10399000E172052305937B1E0493002303930A23FE
:1039A0000293CB0F019300923346424629462046AC
:1039B000FFF761FD5B46002B3FF42CAF0246DDF8BC
:1039C000389037462E4625461F9C1EE01E9B002B36
:1039D00099D00F9B002B96D01E9B013B1E9392E724
:1039E00000239A4694E7DDE90601024601F100430F
:1039F000CDE90623A6E74FF0650CBEE702F101080A
:103A00003B4631462020A8474246A2EB0903A34289
:103A1000F4D31046FEE600BF2DE9F04F2DED028BEA
:103A200095B00790089109920A93DDE92089229DBB
:103A300042464B4640464946FFF7B0FB002834D18A
:103A40004FF0FF326FF4801340464946FFF7B8FB52
:103A5000002839D14FF0FF32A94B40464946FFF7C5
:103A6000EBFB00283FD1A2A3D3E9002340464946FF
:103A7000FFF7E2FB00284CD19FA3D3E90023404687
:103A80004946FFF79DFB002843D100220023404612
:103A90004946FFF795FB002849D10B90249B13F46E
:103AA000806F00F0B580002454E0249B0393239B97
:103AB000029303230193934B00930A9B099A08995D
:103AC0000798FFF7E4FB50E1249B0393239B0293A9
:103AD000042301938C4B00930A9B099A0899079839
:103AE000FFF7D5FB41E1249B13F0040F0ED0874B69
:103AF00004222499039123990291019200930A9B35
:103B0000099A08990798FFF7C2FB2EE1804B032220
:103B1000EFE7249B0493239B03930295CDE900894F
:103B20000A9B099A08990798FFF756FD1DE142463E
:103B30004B4600200021FFF761FA804689460123A9
:103B40000B93ABE704F150036B44302203F8202CB5
:103B5000013D01341F2C01D8092DF3D840464946B8
:103B6000FFF7F8FA0646FFF7D1FA02460B46404641
:103B70004946FFF743FA674B03EBC50393ED007B20
:103B8000B0EE478AF0EE678A53EC172BFFF74AFA3C
:103B900082468B46FFF7F0FA0746FFF7C9FA02465E
:103BA0000B4650465946FFF729FA82468B460022BB
:103BB000594BFFF741FB68B301373846FFF7B8FAB6
:103BC00002460B4651EC180BFFF70EFB08B101360D
:103BD00000276DBB3046FFF799FA02460B46404678
:103BE0004946FFF70BFA8046894600224A4BFFF709
:103BF000E7FA00284CD10022474B40464946FFF7E0
:103C00001BFB002844D116F0010F41D001363FE0E4
:103C1000062548E70022404B50465946FFF7D0FAA8
:103C20000028D6D117B117F0010FD2D00137D0E755
:103C30001F2C17D8013D394BA3FB0723DB0819467E
:103C400003EB8303A7EB4303621C303304F1500002
:103C50000DEB000404F8203C092F02D90F4614464E
:103C6000E6E714461F2C0AD86B1E45B104F150023A
:103C70006A44302102F8201C1D460134F2E71F2C53
:103C800006D804F150036B442E2203F8202C013493
:103C90001F2C17D8224A82FB0632F317C3EBA2036C
:103CA0001A4603EB8303A6EB4303611C303304F194
:103CB00050000DEB000404F8203C16460AB10C46F7
:103CC000E6E70C46249B13F0020F36D113F0010FE8
:103CD00033D0239B002B4DD00B9B1BB9249B13F09F
:103CE0000C0F49D0239B013B2393194621E000BFD1
:103CF0000000000065CDCD410000000065CDCDC1C4
:103D0000FFFFEF7F1C7E0010207E0010107E001051
:103D1000187E0010888400100000E03FCDCCCCCC91
:103D20006766666604F150036B44302203F8202C6A
:103D300001348C4201D21F2CF4D91F2C08D80B9BC4
:103D4000E3B104F150036B442D2203F8202C01341D
:103D5000249B0393239B029301940CAB00930A9B37
:103D6000099A08990798FFF792FA15B0BDEC028BF3
:103D7000BDE8F08F2399DCE72399DAE7249B13F061
:103D8000040F07D004F150036B442B2203F8202CBE
:103D90000134DDE7249B13F0080FD9D004F1500360
:103DA0006B44202203F8202C0134D1E72DE9F04F99
:103DB0008FB0804617460D938946002900F0F682A1
:103DC00000260D9B1878002800F0F382252809D0E2
:103DD000741C3B4632464946C0470D9B01330D9348
:103DE0002646EEE701330D93002511E0202A24D06A
:103DF000232A05D145F0100501330D93012306E078
:103E0000002304E045F0020501330D930123E3B1E3
:103E10000D9B1A782B2A0AD0E8D92D2AF2D0302A05
:103E200011D145F0010501330D930123EFE745F072
:103E3000040501330D930123E9E745F0080501333B
:103E40000D930123E3E70023E1E70A930D9B1A7822
:103E5000A2F13003DBB2092B15D92A2A18D0DDF8DC
:103E600028B00D9B1A782E2A22D00D9B1A786C2A26
:103E700043D039D9742A5CD07A2A5ED145F4807552
:103E800001330D9359E00DA8FFF7EEF98346E8E7FB
:103E9000189B1A1D18921B68002B04DB9B460D9B78
:103EA00001330D93DDE745F00205C3F1000BF6E7A2
:103EB00045F480655A1C0D925A78A2F13003DBB2AA
:103EC000092B0CD92A2AD0D1189B1A1D18921C68CC
:103ED00024EAE4730A930D9B01330D93C5E70DA803
:103EE000FFF7C2F90A90C0E7682A14D06A2A24D1E1
:103EF00045F4007501330D931FE045F480715A1CA1
:103F00000D925A786C2A01D00D4616E045F44075A2
:103F100002330D9311E045F080015A1C0D925A783E
:103F2000682A01D00D4608E045F0C00502330D9324
:103F300003E045F4807501330D930D9B18786528D7
:103F40003DD071D8462800F0878018D963282FD13A
:103F500015F0020500F0A48101241898031D1893A0
:103F600006F1010A3B46324649460078C047002D1B
:103F700040F099810D9B01330D93564621E725288A
:103F80000AD1741C3B46324649462520C0470D9B4A
:103F900001330D93264614E7452810D0741C3B4688
:103FA00032464946C0470D9B01330D93264608E72C
:103FB0002CD858282CD062282AD04728EED1672840
:103FC00001D0472801D145F40065452801D0472894
:103FD00001D145F02005189B073323F0070303F1B7
:103FE000080218920495CDF80CB00A9A0292D3E90F
:103FF0000023CDE900233B46324649464046FFF7C1
:10400000EBFA06460D9B01330D93DAE66428C5D121
:1040100078284BD058287CD06F287CD062287CD060
:1040200025F010050A2342E0702800F0A4810ED983
:10403000732834D1189B1A1D1892D3F800A00A9B3C
:10404000002B40F05A814FF0FF3253463BE1672886
:10405000B5D01FD86628A1D1462800F01181189B41
:10406000073323F0070303F1080218920495CDF8F3
:104070000CB00A9A0292D3E90023CDE900233B4613
:10408000324649464046FFF7C7FC06460D9B0133C2
:104090000D9396E66928BBD06F28B9D07EE7FFF470
:1040A0007DAF7528B4D07828B2D077E71023582890
:1040B00035D0692803D0642801D025F00C0515F40B
:1040C000806F01D025F0010569282BD0642829D004
:1040D00015F4007F40F0968015F4807F40F0AE80AC
:1040E00015F0400F00F0BF80189A111D189112783A
:1040F0000595CDF810B00A9903910293002301931E
:1041000000923B46324649464046FFF7B4F9064620
:1041100029E01023CBE70823C9E70223C7E745F0CE
:104120002005C6E715F4007F21D115F4807F42D128
:1041300015F0400F58D0189A111D1891127882EA84
:10414000E271A1EBE2710595CDF810B00A980390E9
:104150000293D20F019200913B46324649464046B7
:10416000FFF789F906460D9B01330D9329E6189A4E
:10417000073222F0070202F1080118915168126813
:104180000846002913DB0895CDF81CB00A9C06945C
:10419000049300230593C90F0291009201903B46BE
:1041A000324649464046FFF7B6F90646DBE752423B
:1041B00061EB4100E7E7189A111D1891126882EA35
:1041C000E271A1EBE2710595CDF810B00A98039069
:1041D0000293D20F019200913B4632464946404637
:1041E000FFF749F90646BEE715F0800F05D0189A8B
:1041F000111D1891B2F90020A1E7189A111D18910C
:1042000012689CE7189A073222F0070202F10801AF
:1042100018910895CDF81CB00A99069100210493D5
:1042200005910291D2E90023CDE900233B463246B5
:1042300049464046FFF76FF9064694E7189A111D64
:1042400018910595CDF810B00A99039102930023B7
:104250000193136800933B46324649464046FFF7B8
:104260000AF906467FE715F0800F04D0189A111D51
:10427000189112883CE7189A111D1891126837E7B7
:1042800045F02005EBE602F1010A3B4649462020B5
:10429000C047234652465C1C9B45F4D816465CE654
:1042A00001233246F7E7524606E0561C3B46494694
:1042B0002020C0472C463246651CA345F5D89246BF
:1042C00058E601330A46197811B1511E002AF8D177
:1042D000A3EB0A0315F480620B9203D00A9A93426F
:1042E00028BF134615F0020409D032460B9E0B94EA
:1042F000CDF830B00A9D9B461FE00A9AA5E63246EB
:10430000264606E0541C3B4649462020C0472B4623
:1043100022465D1C9B45F5D834462B460B9E0B94DC
:10432000CDF830B00A9D9B4607E01D460AF1010A10
:10433000541C3B464946C04722469AF8000020B12B
:10434000002EF3D06B1E002DEFD116460B9C5B4662
:10435000DDF830B054B90D9B01330D9331E5551C98
:104360003B4649462020C04723462A465C1C9B45C5
:10437000F5D81646EFE745F02105189B1A1D18924F
:104380001B680595082204920A9A03921022029251
:104390000022019200933B46324649464046FFF7D1
:1043A0006AF806460D9B01330D930AE5DFF81C8081
:1043B00006E5BE4208D37A1E3B4649460020C04768
:1043C00030460FB0BDE8F08F3246F5E759320010A5
:1043D00000B585B002900391009313464FF0FF3271
:1043E00002A90248FFF7E2FC05B000BD5B320010F5
:1043F00000BEFDE708B5FFF7FBFF000000B583B086
:104400008C46194662B19646074BCDF804E00093FE
:1044100063460246054800F03BF90120FFF7E8FF3C
:10442000034B9E46F1E700BF287E0010387E001047
:10443000347E001010B5EFF30583DBB203B100BE8C
:10444000FEF7A2FC044C02E054F8043B9847034BEF
:104450009C42F9D310BD00BF38760010447600109E
:1044600008B5034608461B681146984708BD00007A
:10447000F8B507460D461646437D13B10024204685
:104480000CE003681146284698472CE03B7D0FE07E
:104490003B68022114489847601C0134B44213DA87
:1044A000002CF3DD631EEB5C0D2B14BF00230123F6
:1044B0002A5D0A2AF1D1002BEFD1A042E8DA3B684D
:1044C000211A28449847E3E7B04203DA3B68311ADF
:1044D00028449847002E06DD013EAB5D0D2B14BF2E
:1044E000002301233B75F8BDD884001038B503685C
:1044F000B3B105460B4B1C6806E0294651F8042B66
:104500002046FFF7B5FF24694CB12368002BFAD091
:10451000054B1B68002BF0D0A342F4D1EDE72C60D3
:1045200038BD00BF9CA50120A0B1012038B50546CB
:104530000C460B68802B05D023685A1C22601C4453
:10454000257138BD0846FFF7D1FFF5E708B5FDF73F
:10455000CFFB074A821841F10003002B03DB05481B
:1045600003F042F808BD4FF0FF326FF00043F6E76A
:1045700040420F00F8A0012008B5024803F02CF8D3
:1045800008BD00BFF8A001202DE9F04383B0064626
:104590000D4690461C46FFF7D9FF8146B5F1FF3F17
:1045A00004D044B1164F174B1C6807E0304602F0A8
:1045B000DBFF0546F5E7144FF5E72469BCB1236836
:1045C000002BFAD0114B1B680BB1A342F5D12A4640
:1045D00031462046B847B8F1000FEED00A238DF8D7
:1045E000073001220DF107012046B847E5E74B46A9
:1045F0001BB9284603B0BDE8F083FFF7BDFFF8E71D
:10460000714400109CA5012061440010A0B101205C
:1046100010B5054B1C6800E0246924B16368002BC9
:10462000FAD09847F8E710BD9CA5012000207047FC
:1046300038B5054602F098FF044601231A460146A4
:104640002846FFF7A1FFFFF7E3FF204638BD000033
:10465000F0B5A3B007460E46FFF778FF05460023E6
:10466000019301AC33463A4621460848FFF7B0FEB5
:1046700006462046FFF73AFFFFF7CAFF15B9304656
:1046800023B0F0BDFFF778FFF9E700BF2D4500101C
:104690000FB400B583B004A951F8040B0191FFF7E2
:1046A000D7FF03B05DF804EB04B0704703BD10B54D
:1046B0000446FEF771FBA04710BD4FF050431B6D41
:1046C00013F0020FF9D04FF05043586540BF7047C8
:1046D00000E020BF4FF050431B6D13F0010FF8D0E6
:1046E0004FF05043986D70472DE9F04186B0044675
:1046F0000F4616461920FDF779FB80460021192048
:10470000FDF794FB00250095019501230293039684
:10471000049705940DE04FF050439B6D4FF05043CC
:104720001B6D13F0010FF6D140BF09E00135052DD7
:104730000FD806AB03EB850353F8184C002CEDD0D3
:104740002046FFF7BAFFFFF7C3FF8442EED00025F3
:10475000EDE741461920FDF769FB06B0BDE8F081A1
:1047600008B512F0030F11D122F003028B180A4A88
:10477000926843F80C0C43F8081C084943F8041CE1
:10478000A3F10C010648FFF7AFFF08BD054B064A31
:104790008E210648FFF732FE00ED00E0AF46001024
:1047A000AD460010E07E0010DC840010907E00100A
:1047B00008B5064A064B9A4205D311464FF40062EB
:1047C000FFF7CEFF08BD4FF0FF31F7E700080820E4
:1047D0000000082070B596461E4600F00F03C2097F
:1047E0002C4D02EB820403EB830C4FEACC0C0CEB58
:1047F000840C05EB0C0405F80C0000206070E180CF
:10480000254800EBC30002B90430002404605BB902
:1048100002EB820203EB8303DB0003EB82031D4AFE
:1048200013441E4A9A6070BD4FEA8E6C4CF0005CD7
:104830003F318909890189B2BEF1020F27D0184D95
:10484000286802EB820403EB830E4FEACE0E0EEBD8
:10485000840E104C7444A0600144296080F0A04094
:1048600080F480104CEA00040EB144F00044013B97
:104870000C4800EBC30302B904331C600A4B994295
:10488000D1D90A4B0A4A84210A48FFF7B7FD4900EB
:1048900089B2D4E7D8B40120800010500001105034
:1048A000D4B4012008001050FF0F1050FC7E0010FF
:1048B00028850010407F001008B5002308E00A4A50
:1048C0000133002142F8331002EBC3025160DBB226
:1048D0000E2BF4D94FF416720021044802F08AFD21
:1048E000034B044A1A6008BD0000105000B50120B7
:1048F000D4B40120800110502DE9F04F89B0374B1E
:104900009D6D002D67D095FAA5F8B8FA88F80124B6
:1049100004FA08F44FEA580908F0010888F0010B7E
:104920000BEB8B0309EB8907FF0007EB83072C4B8D
:104930001F44B9F1000F4BD009F1FF32294B03EBB3
:10494000C203B8F1000F41D004330293264B03EBAE
:10495000C90AB8F1000F01D00AF1040A1F4B9B6D80
:104960002342CED01D4BDB6D2342204B9C6525EAB4
:104970000405CDF8008014BF01230023524602999C
:10498000384600F0ADFB0028E8D00BEB8B0309EBB9
:104990008906F60006EB8306114B33445A8A0392CC
:1049A000384600F0A9FA0E4B9A5D00238DF81430BA
:1049B00007218DF815108DF81820039A07928DF8AD
:1049C0001930012105A802F00BFEC7E70293BDE7ED
:1049D000CDF80890BAE709B0BDE8F08F000011509B
:1049E000D8B4012008001050800010500030115041
:1049F00010B5037803F00F01DA090CBF012300237F
:104A000043EA410301249C40094B1C66094B5B6E41
:104A100034EA0303FAD1084B03EBC10302B90433B0
:104A200000221A6000F068FA044B5C661C6610BD38
:104A30000020115000001150800010500030115023
:104A400070B584B0454BD3F8985015F4003607D1B3
:104A500015F0100F13D115F4803F38D0002415E065
:104A60009B6CC3F30A0300228DF8042003228DF807
:104A700005200293012101A802F0B2FDE8E7FFF74B
:104A80003BFFE8E7FFF7B4FF0134E4B2012C0AD89A
:104A900004EB8400324B03EB8000012242708378E8
:104AA000012BF1D1EEE700238DF8043006238DF8B9
:104AB00005302C4B93E8030004AB03E9030001210C
:104AC00001A802F08DFD284B4FF400321A653EB16B
:104AD000264B1B7823B9244B4FF40032C3F89020A7
:104AE00015F4805F07D115F4804F18D115F4004FED
:104AF00024D104B070BD0024184B1C60FFF7DCFE0D
:104B00008DF8044001218DF805108DF8084001A8AA
:104B100002F066FD144B4FF400221A65E3E7002310
:104B20008DF8043004238DF8053001210DEB0300CE
:104B300002F056FD0C4B10221A65D7E700238DF8C2
:104B4000043005238DF80530012101A802F048FD4D
:104B5000054B4FF400621A65CBE700BF000011500F
:104B6000D8B401200000105000301150B7BA012015
:104B700008B520B901210E20FDF758F908BD034BF7
:104B8000034A4FF4CE710348FFF738FC907F0010C2
:104B900018850010407F0010024B4FF48032DA6419
:104BA000704700BF0020115070B550BB064600F0A2
:104BB0007FF9174C0C23A367FF2216490E20FDF73F
:104BC00077F928220021144802F014FC00231A4629
:104BD00040211846FFF7FEFD00231A4640218020A1
:104BE000FFF7F8FDFFF768FE012525644FF000533D
:104BF000E3640A4BC4F890303046FFF7CDFF2846F7
:104C000070BD074B074A4FF4B4710748FFF7F6FB36
:104C100000001150414A0010D8B4012010D001000A
:104C2000907F00103C850010407F0010074B1970EA
:104C300029B1074B4FF40032C3F890207047054B61
:104C40004FF40032C3F89020704700BFB7BA01207C
:104C500000201150003011500B7813F01F0F05D1B8
:104C600013F0600F02D14B78052B00D070474B88B2
:104C7000DBB2014A1360F9E70000115008B508469D
:104C8000114600230122FFF7A5FD012008BD000009
:104C900070B58C7804F00F05E40904EB840305EB90
:104CA0008500C00000EB83001E4B1844836823B3CB
:104CB0000E4604EB840205EB8503DB0003EB820365
:104CC000184A13449B78012B27D0B18804EB840247
:104CD00005EB8503DB0003EB8203124A1344D98002
:104CE000F5B1013D104B03EBC50304B904331A6859
:104CF00042F000421A60012070BD40F2F5120B49EB
:104D00000B48FFF7C5FC4FF0E023D3F8F03D13F05C
:104D1000010F00D000BE0020EEE7FFF769FED4E7E8
:104D20000120E9E7D8B401200800105000850010E8
:104D30009C7F001008B5FFF7BFFD08BD10B582B01D
:104D400094469E4601F00F04CB0903EB830204EB6B
:104D50008401C90001EB82010C480844A4B1621E21
:104D60000B4901EBC20103B904310A4A02EBC40248
:104D700003B90432CDF804E000230093634600F049
:104D80004BF9012002B010BD2146EEE7D8B4012056
:104D9000080010508000105000B583B0002200922F
:104DA00013468021FFF7CAFF03B000BD38B501F0FC
:104DB0000F05CC0904EB840305EB8500C00000EB74
:104DC00083000A4B18441DB96CB90222084B9A663D
:104DD000FFF70EFE074B03EBC50304B904334FF492
:104DE00000621A6038BD0122F0E700BFD8B401208C
:104DF0000020115080001050CA0911F00F0111D08D
:104E000002EB820001EB8103DB0003EB8003064829
:104E1000034400205870054B03EBC10302B904336F
:104E200000221A60704700BFD8B4012080001050E3
:104E300005E011F8013BDBB200F8013B624602F1EC
:104E4000FF3C002AF5D1704738B50446C2F3090586
:104E500099B912F4004F09D1638A2B446382E38825
:104E6000AB4201D900232382284638BD0C4B0D4AA2
:104E70004FF494710C48FFF7C1FA12F4004F08D0B8
:104E80002A461946C068FFF7D3FFE3682B44E36066
:104E9000E2E7064B034A4FF496710348FFF7AEFA78
:104EA000B47F001048850010D47F001024800010CB
:104EB00008B54FF080530B4A136002F5805213601F
:104EC000094B9B6813F0805FFAD04FF480520021A9
:104ED000064802F08FFA064B09225A670548FDF78B
:104EE000D1F908BD0020024000000240000010502F
:104EF00000001150A4BA0120002383700382438272
:104F0000C360704708B503680B4013F0042F0FD13E
:104F100021F00423036011F0042F08D0064B1B6C12
:104F200013F0020F02D10C23033BFDD2016008BD38
:104F300001460248FCF78EF9000011504480001031
:104F400008B503880B4013F4806F10D121F48063FF
:104F50009BB2038011F4806F08D0074B1B6C13F0D9
:104F6000020F02D10C23033BFDD2018008BD014694
:104F70000248FCF76FF900BF000011504480001098
:104F800070B504460846238AE5889D4228BF1D4621
:104F90005B1B238245F4806663780BB145F41056A1
:104FA00083F00103637012B93DB946F40046238AC9
:104FB0000BB946F48046304670BD2A46E168FFF7DB
:104FC00037FFE3682B44E360EFE72DE9F84306463B
:104FD0000D46174699461A468168FFF7D1FF40F4FF
:104FE0008054A4B235B12B689846338A43B928F06F
:104FF00080432B6021463846FFF784FFBDE8F883E5
:10500000B1684A4640313046FFF7BAFF44EA0044EF
:1050100048F08043EDE700002DE9F04385B00446F9
:10502000884691461E468378012B20D0BDF8343047
:105030002382002363820123A370E660264B1B6C4E
:10504000C3F340022178B2EBD11F0CBF0122002232
:10505000174613F0020F01D1257985B93B464A4620
:1050600041462046FFF7B1FF05B0BDE8F083017867
:105070001A48FFF70DFB2046FFF73EFFD6E7A3686F
:10508000E1782A4603EB8111304602F0F7F9638A92
:105090002B449BB21E466382238A5B1B9BB22382F6
:1050A000E2682A44E26000222271E270002BD5D12E
:1050B0002046FFF721FF237800218DF804100722F6
:1050C0008DF805208DF8083003968DF8091001A899
:1050D00002F086FAC8E700BF000011506880001097
:1050E0002DE9F04F83B01D469DF830309846837807
:1050F000002B7ED004469146404B1B6C03F002030C
:105100000193E9B10B6813F0804F1BD100239A463D
:10511000A66805B1403609EB4502934639F81530CB
:105120009BB21F4633463A4641462046FFF78CFE67
:1051300007F48043E288824206D8EBB1012104E003
:105140000B46E4E70123E2E701210F46824204D93E
:10515000524612B1424602B183B1002F4AD1238A8E
:10516000002B47D0424631462046FFF709FF014653
:105170005846FFF7E5FE3DE01946E6E7237803F0E1
:105180000F035B0001229A40019B0BB31B49C86CC3
:105190001B4B034043F01003CB64184BDB6C13F044
:1051A000100FFAD185F0010539F8153099B213F4D2
:1051B000004F15D1637883F0010363700023C9F8B1
:1051C0000030019B13B90F4B5A661A66474611E02F
:1051D0000D4B1A66094B5B6E32EA0303FAD1E1E725
:1051E000019B1BB10023C9F80030EFE72171E57086
:1051F000E4E71F46384603B0BDE8F08F00001150C9
:10520000008600200030115000201150002070470F
:1052100008B54B6902490B610121984708BD00BFE1
:1052200018A4012038B5054600240DE0E31A13F058
:10523000FF0318D103EBC3031E4A02EB8303DB68B1
:10524000284698470134E4B21B4B1B785A1CD2B253
:10525000A24217D9A342E9D9184B1B6804EBC40238
:1052600013EB8203EBD140F28B2215491548FFF76F
:105270000FFA4FF0E023D3F8F03D13F0010F00D008
:1052800000BE38BD104C6C220021204602F0B2F85E
:105290004FF0FF33C4F81B30C4F81F30C4F823307C
:1052A000C4F827302022FF2104F12B0002F0A2F8DD
:1052B000E7E700BF4C860010B6BA012028A3012002
:1052C000188600109C7F001018A4012008B5FFF775
:1052D000A9FF08BD2DE9F04383B007460139C8B2E4
:1052E000FBF780FB18B103464278022A13D040F244
:1052F000E3425B495B48FFF7CBF94FF0E023D3F87B
:10530000F03D13F0010F00D000BE00231E463046D2
:1053100003B0BDE8F083C279C2F380125249C87D60
:1053200062F30000C87503F109055A8813449846D2
:10533000454580F08E802B782B449845C0F08C80BA
:105340006A780B2A72D0042A05D143465B1B9BB2B4
:105350001E4600243CE040F2F34241494148FFF739
:1053600097F94FF0E023D3F8F03D13F0010F00D090
:1053700000BE00231E46CAE7E31A13F0FF0305D15F
:1053800003EBC303394A02EB830330E040F2FB42F4
:1053900033493448FFF77CF94FF0E023D3F8F03D70
:1053A00013F0010F00D000BE00231E46AFE740F20D
:1053B00003522B492B48FFF76BF94FF0E023D3F84A
:1053C000F03D13F0010FA2D000BEA0E70134E4B21B
:1053D000274B1B785A1CD2B2A24220D9A342CBD968
:1053E000244B1B6804EBC40213EB8203CED01B6971
:1053F000324629463846984781460828E6D98642EB
:10540000E4D31D4A019000951023D118204601F0E5
:1054100017FE06460028CAD04B462B4400E02B4618
:10542000134A12780132D2B2A24201D91D467FE757
:1054300040F20C520A490B48FFF72AF94FF0E023DB
:10544000D3F8F03D13F0010F00D000BE00231E463C
:105450005DE701231E465AE701231E4657E700BFBA
:10546000D08500109C7F001018A401204C860010ED
:10547000B6BA012028A3012033A401207047704749
:105480000020704700207047002070477047704729
:10549000704770470346002018707047014B587ED4
:1054A000704700BF18A40120024B1878FF3818BFBE
:1054B00001207047ECA00120F8B506460C460F46C7
:1054C000FFF7F2FF0546002870D134B36C220021AB
:1054D000454801F08FFF454B00221A704448FCF705
:1054E000D1FE444C2046FCF783FE434B1C60434CEA
:1054F0002046FCF7C7FEA4F1140001F06CFE183C36
:105500003F4B1C603F4C2046FFF7C4FF3E4B1860EA
:105510002378FF2B10D000242BE040F21E223B49C1
:105520003B48FFF7B5F84FF0E023D3F8F03D13F018
:10553000010F3BD000BE39E040F2492233493448E4
:10554000FFF7A6F84FF0E023D3F8F03D13F0010F7A
:105550002CD000BE2AE0E31A13F0FF0318D103EBAE
:10556000C3032C4A02EB83035B688BB19847013479
:10557000E4B2244B1B785A1CD2B2A24218D9A342DF
:10558000E9D9214B1B6804EBC40213EB8203EBD176
:1055900040F24E221D491E48FFF77AF84FF0E023F3
:1055A000D3F8F03D13F0010F00D000BE2846F8BD3F
:1055B000194B1E7039463046FFF7F6FA054618B10A
:1055C0003046FFF7D5FAF1E740F256220F4910486E
:1055D000FFF75EF84FF0E023D3F8F03D13F0010F32
:1055E000E4D000BEE2E700BF18A40120B8BA012051
:1055F0004CA5012010A4012084A40120E4A00120D6
:1056000088A40120B6BA012028A301203C860010FE
:105610009C7F00104C860010ECA0012000487047D1
:105620006CA3012030B583B02248007801F00F044C
:10563000DFF884C00CEB440C0CEBD11C9CF84BC085
:105640001CF0010F25D1CD09DFF86CC00CEB440C28
:10565000AC449CF84BE04EF0010E8CF84BE09DF80A
:1056600018C0CDF800C0FFF769FB08BB124B03EB75
:1056700044032B4493F84B2002F0FA0283F84B20AA
:105680004FF0E023D3F8F03D13F0010F10D000BE2F
:105690000EE040F22F6209490948FEF7F9FF4FF08A
:1056A000E023D3F8F03D13F0010F00D000BE00203E
:1056B00003B030BDECA0012018A4012070850010BB
:1056C0009C7F001000B583B0094BDB8873B1084B99
:1056D00093F90030002B07DA0021002200921346D4
:1056E000FFF7A0FF03B000BD8021F6E78021F4E7BB
:1056F00018A40120F0B583B007461A4B9E89DD89B6
:10570000741BA4B2402C28BF402493F90030002B16
:105710000BDB0021AE421FD0134A00230093234627
:105720003846FFF77FFF03B0F0BDAE420ED00D4B01
:1057300099680D4B99420BD064B179B1402C0FD8C8
:105740002246184601F09AFE8021E3E78021E1E736
:105750008021DFE78021DDE70022DEE70846E2E77F
:105760000020E0E718A401206CA3012070B582B0EE
:1057700006461C46494BDB88002B3ED0474B93F92D
:105780000030002B36DA00231D46A94238D0434BA7
:1057900093F90030002B0ADB404B986800287BD03F
:1057A0003F4B984203D02246194601F067FE3B4A20
:1057B000D38913FA84F39BB2D38191682144916019
:1057C000D288934201D03F2C51D8344B1B692BB166
:1057D000324A02213046984700283ED000220092EB
:1057E000134629463046FFF71DFF044630B32046D6
:1057F00002B070BD80231D46C7E780231D46C4E765
:105800007CB140F2863227492748FEF741FF4FF02E
:10581000E023D3F8F03D13F0010F00D000BE0024C8
:10582000E5E71E4C21463046FFF716FA23691BB107
:1058300022460321304698470124D8E740F2A93296
:1058400018491948FEF724FF4FF0E023D3F8F03D44
:1058500013F0010FCBD000BEC9E701463046FFF779
:10586000A5FA80213046FFF7A1FA0124BFE73046B0
:10587000FFF740FF04460028B9D140F2B132094990
:105880000948FEF705FF4FF0E023D3F8F03D13F091
:10589000010FACD000BEAAE70446A8E718A4012077
:1058A0006CA30120A08500109C7F001010B582B071
:1058B00026498A60B1F806C0634528BF63468B81DC
:1058C000BCF1000F28D003B132B1FFF713FF04463B
:1058D00098B1204602B010BD40F273321C491D48F9
:1058E000FEF7D6FE4FF0E023D3F8F03D13F0010FA2
:1058F00000D000BE00231C46EBE740F2753214498D
:105900001448FEF7C5FE4FF0E023D3F8F03D13F046
:10591000010FDED000BEDCE76246CDF800C0634672
:105920008021FFF77FFE04460028D2D14FF45E723B
:1059300007490848FEF7ACFE4FF0E023D3F8F03DEE
:1059400013F0010FC5D000BEC3E700BF18A40120AB
:105950008C8500109C7F001038B505460C464B889E
:105960001A0A062A61D01146D8B211D8022A2FD0BD
:10597000032A4ED0012A09D1FBF730F80246B8B10C
:10598000122321462846FFF791FF2CE000202AE051
:10599000072A1DD00F2A09D1FFF772FD024610B366
:1059A000438821462846FFF781FF1CE000201AE0CB
:1059B00040F21C5222492348FEF76AFE4FF0E023D2
:1059C000D3F8F03D13F0010F00D000BE00200AE034
:1059D000022909D0FFF758FD024620B1538821461D
:1059E0002846FFF763FF38BDFAF7FCFF02460028A0
:1059F000F4D140F2415212491248FEF749FE4FF0ED
:105A0000E023D3F8F03D13F0010F00D000BE0020DA
:105A1000E9E7A188FAF7EAFF02460028E3D0037815
:105A200021462846FFF742FFDDE7FFF72BFD024640
:105A30000028D8D0037821462846FFF737FFD2E761
:105A4000B88500109C7F00102DE9F04182B0074618
:105A50000C464B78052B1DD012D8012B7FD0032B81
:105A60006DD0002B40F08B804C4BDB7DADF80630C9
:105A700002230DF10602FFF719FF01231D4611E075
:105A8000082B13D0092B1DD0062B78D1FFF764FF0C
:105A9000054607E04988C9B2FFF77EF901203F4B70
:105AA00058750546284602B0BDE8F0813B4B1B7E89
:105AB0008DF8063001230DF10602FFF7F7FE0123F2
:105AC0001D46EFE74B88DAB29046344B1B7E93427B
:105AD00007D06BB9314B424683F81880AAB9FFF75B
